S0140000686F6D655F6C69676874696E672E73333782
S113000000800020B1010000DD010000DD010000DE
S1130010DD010000DD010000DD010000DD01000064
S1130020DD010000DD010000DD010000DD01000054
S1130030DD010000DD010000DD010000DD01000044
S113004085110000DD010000811F0000DD010000BA
S1130050DD010000DD010000411F0000DD010000A2
S1130060DD010000DD010000DD010000DD01000014
S1130070DD010000DD010000DD010000DD01000004
S1130080DD010000DD010000DD010000DD010000F4
S1130090DD010000DD010000DD010000DD010000E4
S11300A0DD010000DD010000A11E0000DD010000F3
S11300B0DD010000DD010000DD010000DD010000C4
S11300C0DD010000DD010000DD010000DD010000B4
S11300D0DD010000DD010000DD010000DD010000A4
S11300E010B5054C237833B9044B13B10448AFF36E
S11300F000800123237010BD740000200000000064
S1130100F4280000084B10B51BB108480849AFF3A8
S113011000800848036803B910BD074B002BFBD0CF
S1130120BDE81040184700BF00000000F42800009C
S1130130780000207000002000000000154B002B08
S113014008BF134B9D46A3F5803A00218B460F460A
S11301501348144A121A02F0B3FB0F4B002B00D0C1
S113016098470E4B002B00D0984700200021040034
S11301700D000D48002802D00C48AFF3008002F0B7
S113018079FB2000290001F05DFF02F05FFB00BF56
S113019000000800008000200000000000000000B3
S11301A074000020A00000200000000000000000F7
S11301B0064880470649074A074B9A42BEBF51F892
S11301C0040B42F8040BF8E7FFF7B8FF5D030000E7
S11301D0002900000000002074000020FEE700BF9A
S11301E080B400AF044BDB6C1B0EDBB21846BD467B
S11301F05DF8047B704700BFB081E00F80B582B02A
S113020000AF00F01FF87860074B5B6803F00F0342
S11302101A467B68D3407B60044A7B6813607B6822
S113022018460837BD4680BD00800C409800002069
S113023080B400AF024B1846BD465DF8047B70479E
S1130240006CDC0280B582B000AF334BDB6A03F490
S11302507053B3F5805F0AD0B3F5005F03D0B3F5F4
S1130260006F08D00BE02D4B1B687B6047E04FF418
S113027000437B6043E02A4B1B687B603FE0264BD6
S1130280DB6803F4E063B3F5007F1BD0B3F5007FB4
S113029005D8002B24D0B3F5807F16D02BE0B3F51E
S11302A0806F09D0B3F5A06F03D0B3F5407F06D0BB
S11302B021E01C4B7B6021E01B4B7B601EE01B4B51
S11302C07B601BE01A4B7B6018E0FFF789FF034655
S11302D0122B02D9174B7B6010E0174B7B600DE0AB
S11302E0FFF77EFF0346122B02D9144B7B6005E017
S11302F0134B7B6002E000237B6000BF00BF064B12
S11303001B6803F4E0339B0B01337A68B2FBF3F30D
S113031018460837BD4680BD00800C40040000200C
S113032000000020003FAB01406F4001809FD500DA
S1130330C0D8A70040B56400C0CF6A00804F120047
S113034040420F0080B400AF034B1B681846BD4603
S11303505DF8047B704700BF0000002080B400AF4C
S1130360BD465DF8047B704780B400AF4FF4004392
S11303701846BD465DF8047B704700BF80B400AFEB
S11303804FF47A731846BD465DF8047B704700BF8E
S113039080B400AF034B1B681846BD465DF8047B70
S11303A0704700BF0400002080B487B000AFF8603D
S11303B0B9607A60FB6803F10473DA00BB68134424
S11303C09B007B617B697A681A601C37BD465DF8C7
S11303D0047B704780B483B000AF78607B68094ABF
S11303E0934203D07B68084A934200D100BF7B68E4
S11303F01B6823F001027B681A600C37BD465DF868
S1130400047B7047001000400014004080B483B0A7
S113041000AF78607B68094A934203D07B68084A3E
S1130420934200D100BF7B681B6843F001027B68E4
S11304301A600C37BD465DF8047B7047001000401D
S11304400014004080B483B000AF78600B46FB70AA
S11304501346BB707B680C4A934203D07B680B4AFB
S1130460934200D100BF7B685B6823F0F703FA78FE
S113047012011A43BB781A437B685A600C37BD4695
S11304805DF8047B704700BF00100040001400407A
S113049080B582B000AF786039607B68224A9342AD
S11304A003D07B68214A934200D100BF7B68184681
S11304B000210022FFF778FF3B681B78DA073B68CE
S11304C05B789B0713431A463B685B681B06134320
S11304D03A68127A520413433A68527A1204134364
S11304E03A68927A120213433A68D27A1201134399
S11304F03A68127B92001A437B681A603B685B7B04
S11305001B041A463B681B691B021A437B685A602A
S11305107A683B681B7D104600211A46FFF744FFAA
S11305200837BD4680BD00BF0010004000140040E5
S113053080B487B000AFF860B9607A60FB6803F1FB
S11305400473DA00BB6813449B007B617B697A689F
S11305501A601C37BD465DF8047B704780B485B0D3
S113056000AF786039607B6803F10473DA003B689C
S113057013449B00FB60FB681B6818461437BD4698
S11305805DF8047B704700BF80B485B000AF78602D
S11305907B68002B04D07B68B3F5004F00D800BF04
S11305A07B68B3FA83F3C3F11F03FB60FB6818464F
S11305B01437BD465DF8047B704700BF80B400AFBC
S11305C0044BDB6C1B0EDBB21846BD465DF8047BA6
S11305D0704700BFB081E00F80B400AF054BDB6C07
S11305E003F47F031B0CDBB21846BD465DF8047BA5
S11305F0704700BFB081E00F80B582B000AFFFF755
S1130600EBFF03464A2B04D0792B02D0482B21D090
S113061022E0144B1B699BB203F03F039BB21B0205
S1130620FB80104B9B6903F0F0039AB2FB881343E1
S1130630FB800C4BDB6903F0F0031B099AB2FB88C7
S11306401343FB80FB88B3F5017F01D3064B04E021
S1130650064B02E0054B00E0002318460837BD4670
S113066080BD00BFD0FF0FE000366E010048E801F6
S113067080B584B000AF786039607A683B689A428C
S11306808CBF01230023DBB2FB6006481E21FA68FD
S1130690FFF74EFF04480821FA68FFF749FF1037B7
S11306A0BD4680BD00800C4004800C4080B582B003
S11306B000AF07481E21FFF751FF78600548082165
S11306C0FFF74CFF38607B6818460837BD4680BD8D
S11306D000800C4004800C4080B582B000AF214BF8
S11306E05B6903F4E063B3F5007F1CD0B3F5007FCE
S11306F005D8002B25D0B3F5807F1FD02AE0B3F5B1
S1130700C06F24D0B3F5E06F1ED0B3F5407F21D184
S1130710FFF754FF0346122B02D9134B7B601CE0F6
S1130720124B7B6019E0FFF749FF0346122B02D9F5
S11307300F4B7B6011E00F4B7B600EE00E4B7B6038
S11307400BE00E4B7B6008E00D4B7B6005E00D4B2E
S11307507B6002E000237B6000BF7B68184608379B
S1130760BD4680BD00800C40804F120040420F0007
S113077040B56400C0CF6A00C0D8A700809FD500F0
S1130780406F4001003FAB0180B582B000AF0D481F
S113079000F08EFA0346FB70FB78072B05D0082B7C
S11307A007D1FFF74FFD786006E0FFF795FF78600B
S11307B002E000237B6000BF7B6818460837BD4613
S11307C080BD00BF06000C0080B485B000AF786027
S11307D0284BDB6B002B14BF01230023BB72254B7A
S11307E041F67132DA63234B5B6803F00703FB6065
S11307F0FB68012B01D9042B02D10023FB7202E018
S11308000123FB7200BF7B681B4A934207D9FB7A22
S1130810002B01D0052300E00423FB6016E07B6875
S1130820154A93420BD87B68144A934207D9FB7A42
S1130830002B01D0032300E00123FB6006E0FB7AD8
S1130840002B01D0022300E00023FB600949094B7F
S11308505B6823F00702FB6813434B60BB7A002BF1
S113086002D0044B0022DA631437BD465DF8047BE2
S1130870704700BF00000C400048E8010024F40069
S113088080B500AFFFF7D4FC03461846FFF79CFF82
S113089080BD00BF90B585B000AF78600023BB6019
S11308A07B68344A934203D0334A934200D000E039
S11308B000BF786800F0FCF90346FB607B682D4AB2
S11308C0934203D02C4A934206D00CE02B4B9B6AF4
S11308D003F00303FB6006E0284B9B6A03F00C0360
S11308E09B08FB6000BFFB68032B3AD801A252F8B7
S11308F023F000BF2B090000050900000D090000CA
S113090015090000FFF730FDB8602DE0FFF740FD4A
S1130910B86029E0FFF772FC0446FFF7C7FE034600
S1130920013324FA03F3BB601EE00023BB607B6841
S1130930104A934203D07B680F4A934210D10F4B65
S11309409A6A7B680B498B4201D1102300E014237F
S113095022FA03F3002B03D0FFF710FDB86003E085
S113096002E00023BB6000BFBB6818461437BD46D5
S113097090BD00BF02001A0003001C0000800C4060
S113098080B483B000AF7860094B5B6D03F0010362
S1130990002B00D006E000BF054B1A6D7B681340A6
S11309A0002BF9D10C37BD465DF8047B704700BFBE
S11309B000800C4080B582B000AF104800F078F998
S11309C00346FB70FB78032B07D0082B09D0022BBE
S11309D00BD1FFF7DDFC78600AE0FFF7C5FC786017
S11309E006E0FFF72FFC786002E000237B6000BF85
S11309F07B6818460837BD4680BD00BF0723220028
S1130A0090B587B000AF78600B46FB7000233B6164
S1130A107B681B0A03F00F03013B092B49D801A291
S1130A2052F823F0690A00006F0A00004D0A000022
S1130A30B30A0000B30A0000750A00007F0A000030
S1130A40B30A0000B30A0000890A00001B4B7B6153
S1130A501B4800F041F80446FFF7CEFD034620464C
S1130A601946FFF705FE12E0164B7B610FE0164BAB
S1130A707B610CE0154B7B6101233B6107E0144B68
S1130A807B6110233B6102E0124B7B6100BF7B68FA
S1130A901B0B03F01F03FB603B69002B02D038697A
S1130AA0FFF76EFFFB787869F9681A46FFF740FD97
S1130AB000E000BF1C37BD4690BD00BF40800C4025
S1130AC00043020008800C4044800C4058800C40D5
S1130AD060800C4078800C4090B585B000AF7860A1
S1130AE07B6803F47813B3F5B01F00F0AB80B3F563
S1130AF0B01F1AD8B3F5402F00F0BF80B3F5402FD4
S1130B0008D8B3F5003F3CD0B3F5802F2DD0002B8F
S1130B1027D0BEE0B3F5801F3CD0B3F5A01F47D06B
S1130B20B3F5602F00F0AD80B3E0B3F5081F00F01B
S1130B30AC80B3F5081F0AD8B3F5D01F25D0B3F5A0
S1130B40E01F7AD0B3F5C01F00F08980A1E0B3F5AF
S1130B50201F4ED0B3F5281F62D0B3F5181F35D02F
S1130B6097E0FFF76FFBF86096E0FFF76BFBF86028
S1130B704C4B9B6803F00F031A46FB68D340FB60A1
S1130B808AE0FFF73BFBF86086E04748FFF782FE08
S1130B90F86081E04448FFF77DFEF860414B9B6EAE
S1130BA003F0F0031B091A46FB68D340FB6073E0B3
S1130BB03D48FFF76FFEF8603A4B9B6E03F4706399
S1130BC01B0A1A46FB68D340FB6065E03648FFF712
S1130BD061FEF860334B9B6E03F440531C0B1020F2
S1130BE0FFF7D2FC034623441A46FB68D340FB605C
S1130BF052E02D48FFF74EFEF8602A4B9B6E03F43B
S1130C0040531B0B1A46FB68D340FB60254BDB6F3C
S1130C1003F007030133FA68B2FBF3F3FB603BE034
S1130C202148FFF737FEF8601E4B9B6E03F0030369
S1130C301A46FB68D340FB602EE01C48FFF72AFEEF
S1130C40F86029E01948FFF725FEF860154B1B6F83
S1130C5003F003031A46FB68D340FB601CE013480F
S1130C60FFF718FEF8600F4B1B6F03F030031B09EE
S1130C701A46FB68D340FB600EE0FFF785FDF86081
S1130C800AE0FFF729FDF86006E0FFF793FEF8603D
S1130C9002E00023FB6000BFFB6818461437BD4622
S1130CA090BD00BF00800C4002001A0003001C002D
S1130CB080B485B000AF78600123FB737B6803F0D8
S1130CC00F03BB60BB68013B062B00F2938001A2BB
S1130CD052F823F0F10C0000270D0000630D000012
S1130CE0F50D0000F50D00009F0D0000C10D000082
S1130CF0454BDB6A03F47053B3F5805F09D0B3F559
S1130D00005F03D0B3F5006F06D008E00223FB7345
S1130D1008E00323FB7305E00423FB7302E00523CF
S1130D20FB7300BF69E0384B9B6A03F00303022B9B
S1130D3006D0032B07D0012B08D10323FB730FE04C
S1130D400223FB730CE00623FB7309E02E4B9B6A22
S1130D5003F48033002B02D00923FB7300E000BFAF
S1130D604BE0294B9B6A03F00C03082B06D00C2B99
S1130D7007D0042B08D10323FB730FE00223FB737A
S1130D800CE00623FB7309E01F4B9B6A03F48013FA
S1130D90002B02D00923FB7300E000BF2DE01A4BA7
S1130DA01B6803F08053002B03D0B3F1805F03D0A2
S1130DB023E00723FB7302E00823FB7300BF1CE05E
S1130DC0114BDB6A03F46033B3F5803F08D0B3F50D
S1130DD0003F08D0B3F5004F08D10823FB7308E0A7
S1130DE00223FB7305E00323FB7302E00123FB737F
S1130DF000BF02E00023FB7300BFFB7B18461437DF
S1130E00BD465DF8047B704700800C4090B589B006
S1130E1000AF78600B46FB700323FB610323FB7672
S1130E2000233B617B6803F00F03FB60FB68013B1D
S1130E30062B00F2348101A252F823F0590E00006F
S1130E40450F0000450F00009F1000009F10000098
S1130E500D10000037100000FB78023B072B00F256
S1130E60228101A252F823F0890E0000930E0000A3
S1130E709D0E0000E70E0000A7100000A710000060
S1130E80A7100000A71000000423FB610023FB76D9
S1130E9039E00323FB610123FB7634E00223FB6189
S1130EA00223FB76FFF7A8FB03465C1CFFF7A4FBB9
S1130EB0034620461946FFF7DBFBFFF743FA0246D9
S1130EC07C4B9A4206D97C4A7B4B1B6843F06003F7
S1130ED0136018E0784A784B1B6823F0600343F0F2
S1130EE0200313600FE00123FB610323FB76FFF76C
S1130EF083FB03465C1CFFF77FFB03462046194631
S1130F00FFF7B6FB00BFFB7E18460121012200F06B
S1130F10D9F8FFF7B5FC684AFB6953626748FFF7E5
S1130F20DBFD0446FFF768FB034620461946FFF73E
S1130F309FFB00F009FBFFF761F9B860B868FFF7A1
S1130F4043FCADE0FB78013B082B00F2AE8001A22C
S1130F5052F823F0790F00007F0F00008F0F00007C
S1130F60AB100000AB1000009F0F0000AB1000009E
S1130F70AB100000C30F000000237B6126E00020BB
S1130F800121012200F09EF802237B611EE0012072
S1130F900121012200F096F801237B6116E0FFF79E
S1130FA02DF9B860FFF728FB0346B8681946FFF728
S1130FB05FFB434804210122FFF7BAFA03237B6154
S1130FC004E000237B6101233B6100BFFB68022B2B
S1130FD00DD13949384B9B6A23F4803323F0030342
S1130FE07A691A433B691B0413438B6258E0324904
S1130FF0314B9B6A23F4801323F00C037A6992002B
S11310001A433B691B0513438B6249E0FB78072BAA
S113101002D0082B07D049E0274A274B1B6823F04E
S11310208053136006E0244A234B1B6843F080532B
S1131030136000BF34E0FB78032B14D0082B22D0BC
S1131040022B00D032E000200121012200F03AF806
S1131050194B40225A6200BF174BDB6A03F48033FA
S1131060002BF9D01AE001200121012200F02AF816
S1131070114B60225A6200BF0F4BDB6A03F400334A
S1131080002BF9D00AE00C4B20225A6200BF0A4B15
S1131090DB6A03F40043002BF9D000BF00E000BF7B
S11310A0FFF704FB02E000BF00E000BF2437BD46A9
S11310B090BD00BF0048E80100800C4000430200DE
S11310C040800C4080B586B000AF0346FB710B46F0
S11310D0BB7113467B71FB79042B4AD801A252F8E9
S11310E023F000BF3111000023110000071100009C
S11310F0F91000001511000001233B610223FB607D
S113110001237B611DE004233B610823FB6003236F
S11311107B6116E010233B612023FB6005237B6188
S11311200FE040233B618023FB6007237B6108E0E1
S11311304FF480733B614FF40073FB6009237B61C0
S113114000BFBB79002B0ED00C4A3B6913627B793C
S1131150002B0BD000BF0A487969FFF7FFF903465B
S1131160002BF8D002E0054AFB68136200F0ECF9AA
S113117000E000BF1837BD4680BD00BF00800C40B2
S11311802C800C4080B58AB000AF334B03F58053FC
S11311901B68BB61304B03F580530C331B68BA6981
S11311A01340BB612C4B9B6B7B61BA697B69134019
S11311B03B620023FB6149E000237B623BE03B6A26
S11311C003F00103002B30D0234B9B683B610122C9
S11311D07B6A02FA03F3FB601F4B03F58053083369
S11311E0FA681A607B6A1B013A691344DB68BB60C6
S11311F0BB68002B19D0BB681B7A7B60BB681B7A69
S113120083F00103DAB2BB681A72BB681B68002B57
S11312100BD0BB681B68786A7A68002A14BF012265
S11312200022D1B2BA68526898473B6A5B083B62B5
S11312307B6A01337B623B6A002BC0D17B69DA4352
S1131240BB6913403B62FB690133FB61FB69012B02
S1131250B2DD2837BD4680BD00200C4080B500AF0C
S1131260FEF7CCFF80BD00BF80B400AF034B00226B
S1131270C3F88420BD465DF8047B704700800C40B1
S113128080B400AF044B45F60E02C3F88420BD467B
S11312905DF8047B704700BF00800C4080B582B0CD
S11312A000AF384BD3F8843003F001037B60FFF7C1
S11312B0E7FF00233B60344B1B6803F001033A68EB
S11312C013433B60304B1B6803F010033A6813432D
S11312D03B602D4B1B6803F040033A6813433B60AB
S11312E0294B1B6803F004033A6813433B60264B05
S11312F01B6803F480733A6813433B60214A3B68DC
S11313001362214B1B6803F47053B3F5805F06D05E
S1131310B3F5005F0ED0B3F5006F16D020E000BF28
S1131320184BDB6A03F08003002BF9D0154B032222
S11313305A6215E000BF134BDB6A03F40073002B01
S1131340F9D0104B04225A620AE000BF0D4BDB6A4D
S113135003F00803002BF9D00A4B02225A6200BFA3
S1131360094B1B6803F00103002B02D1054B022239
S11313701A627B68002B01D0FFF776FF0837BD4661
S113138080BD00BF00800C409000002080B483B07A
S113139000AF164B1B699BB203F03F039BB21B02C9
S11313A0FB80124B9B6903F0F0039AB2FB88134352
S11313B0FB800E4BDB6903F0F0031B099AB2FB8838
S11313C01343FB80FB88B3F5827F03D3FB88B3F51B
S11313D0017F01D1012300E0002303F00103DBB20C
S11313E018460C37BD465DF8047B7047D0FF0FE00C
S11313F080B586B000AF0346FB711F4BDB6A1F4A02
S113140013601F4A1E4B1B6943F004031361FFF76B
S1131410BDFF0346FB75FB7D002B11D0194B1A68E9
S1131420194B1340FB60174AFB68C2F88030154B18
S11314305B6823F046033B61124A3B69C2F884307F
S113144030BFFB7D002B05D00E4AFB6813600D4AAC
S11314503B695360FB79002B02D0FFF71FFF07E0C5
S1131460064B1B6803F48063002B01D1FFF7F6FEE3
S11314701837BD4680BD00BF00800C40900000209E
S113148000ED00E000E100E09CF1FD0080B586B0D5
S113149000AF0346FB71274BDB6A274A1360254BD9
S11314A0D3F8843003F001037B61FFF7E9FE214B9D
S11314B04FF420721A627B69002B01D0FFF7D4FE2F
S11314C01E4A1E4B1B6943F004031361FFF75EFFC2
S11314D00346FB74FB7C002B11D0194B1A68194B83
S11314E01340BB60164ABB68C2F88030144B5B687B
S11314F023F04603FB60124AFB68C2F8843030BF15
S1131500FB7C002B05D00E4ABB6813600C4AFB68B9
S11315105360FB79002B02D0FFF7C0FE07E0064BB7
S11315201B6803F48063002B01D1FFF797FE183783
S1131530BD4680BD00800C409000002000ED00E01E
S113154000E100E09CF1FD0080B400AF034BDB6AD6
S1131550034A1360BD465DF8047B704700800C406D
S11315609000002080B483B000AF03463960FB7163
S1131570FB79002B0DD0FB79012B0AD0FB79022BD0
S113158007D0FB79032B04D0FB79042B01D0FB7922
S1131590052B0949FA793B68012000FA03F3184640
S11315A01346DB0013449B000B44103358600C3784
S11315B0BD465DF8047B70470060004080B483B092
S11315C000AF03463960FB71FB79002B0DD0FB792A
S11315D0012B0AD0FB79022B07D0FB79032B04D013
S11315E0FB79042B01D0FB79052B0949FA793B6877
S11315F0012000FA03F318461346DB0013449B0052
S11316000B44103318600C37BD465DF8047B7047FB
S11316100060004090B585B000AFB9607B600346C0
S1131620FB731346BB73FB7B002B0DD0FB7B012BA1
S11316300AD0FB7B022B07D0FB7B032B04D0FB7B64
S1131640042B01D0FB7B052BBB7B002B0DD07B68CF
S1131650002B05D0FB7B1846B968FFF7AFFF04E009
S1131660FB7B1846B968FFF77DFFBB68072B1CD8C6
S11316702A4CFA7B2948F97B0B46DB000B449B0080
S113168003445B68B968890008460F218140C94357
S11316900B40B97BB8688000814019431346DB00D6
S11316A013449B002344596024E01C4CFA7B1B48E0
S11316B0F97B0B46DB000B449B0003440833196899
S11316C0BB6803F18043083B9B0018460F2383400B
S11316D0DB431940B87BBB6803F18043083B9B00A4
S11316E000FA03F319431346DB0013449B0023441D
S11316F008331960BB7B002B0DD17B68002B05D010
S1131700FB7B1846B968FFF759FF04E0FB7B1846DA
S1131710B968FFF727FF1437BD4690BD006000404D
S113172080B487B000AFF860B9607A60FB68114A92
S1131730934208D1BB68012B05D87B681B0C1B04A2
S1131740002B00D100BFBB68002B02D0012B04D0BA
S11317500AE0FB6810337B6103E0FB6814337B61B0
S113176000BF7B697A681A601C37BD465DF8047B4C
S1131770704700BF0020084080B483B000AF786099
S11317800B46FB70FB78002B03D07B6801225A6068
S113179002E07B6802225A600C37BD465DF8047B88
S11317A0704700BF80B485B000AF78603960002313
S11317B0FB603B681B7883F00103DBB2002B08D08D
S11317C07B689B6803F00103002B02D07B68022234
S11317D05A603B685B78002B03D0FB6843F480536A
S11317E0FB603B689B78002B03D0FB6843F4806369
S11317F0FB603B68DB78002B03D0FB6843F4006399
S1131800FB603B681B79002B03D0FB6843F4007337
S1131810FB603B685B79002B03D0FB6843F4807367
S1131820FB603B689B79002B03D0FB6843F04003CB
S1131830FB603B68DB79002B03D0FB6843F080033B
S1131840FB603B681B7A9B001A46FB681343FB60F2
S11318503B685B7A1B011A46FB681343FB603B68D9
S11318609B7A1A46FB681343FB607B68FA681A602C
S11318703B681B78002B08D07B689B6803F001034E
S1131880002B02D17B6801225A601437BD465DF8F3
S1131890047B704780B485B000AF7860194B5B69F6
S11318A0DBB203F00F03DBB29B00FB73154B1B6928
S11318B003F0C0039B09DAB2FB7B1343FB737B6821
S11318C0FA7B9A700F4B1B69DBB203F03F03DAB269
S11318D07B685A700B4B9B69DBB223F00F03FB73DD
S11318E0084BDB6903F0F0031B09DAB2FB7B1343FB
S11318F0FB737B68FA7B1A701437BD465DF8047B72
S1131900704700BFD0FF0FE080B483B000AF034640
S1131910FB71084997F907305B09FA7902F01F0255
S1131920012000FA02F241F823200C37BD465DF88D
S1131930047B704700E100E080B483B000AF03464D
S11319403960FB71FB79002B0DD0FB79012B0AD098
S1131950FB79022B07D0FB79032B04D0FB79042BF2
S113196001D0FB79052B0949FA793B68012000FA7B
S113197003F318461346DB0013449B000B44103357
S113198058600C37BD465DF8047B7047006000402A
S113199080B483B000AF03463960FB71FB79002B40
S11319A00DD0FB79012B0AD0FB79022B07D0FB79F0
S11319B0032B04D0FB79042B01D0FB79052B0949B7
S11319C0FA793B68012000FA03F318461346DB005A
S11319D013449B000B44103318600C37BD465DF86C
S11319E0047B70470060004080B483B000AF0346BE
S11319F03960FB71FB79002B0DD0FB79012B0AD0E8
S1131A00FB79022B07D0FB79032B04D0FB79042B41
S1131A1001D0FB79052B0949FA793B68012000FACA
S1131A2003F318461346DB0013449B000B4418339E
S1131A3018600C37BD465DF8047B704700600040B9
S1131A4080B582B000AF0C4B1B687B603B461846E8
S1131A50FFF720FF7B681B0E0F2B0AD93B78032B63
S1131A6007D1064A054B1B6823F0500343F01003CB
S1131A7013600837BD4680BDFC81E00FC0800C4078
S1131A8080B400AF72B6084B1B68B3F1FF3F04D0BB
S1131A90054B1B680133044A1360034B1B6818464B
S1131AA0BD465DF8047B70479400002080B483B089
S1131AB000AF0C4B1B68002B0DD00A4B1B68013B7D
S1131AC0084A1360074B1B687B607B68002B00D1BE
S1131AD062B67B6800E0002318460C37BD465DF80B
S1131AE0047B70479400002080B400AF054A054B86
S1131AF01B6923F00403136130BFBD465DF8047B0A
S1131B00704700BF00ED00E080B483B000AF7860A0
S1131B1039607B683A689A620C37BD465DF8047B8D
S1131B20704700BF80B483B000AF78607B681B6AE5
S1131B3018460C37BD465DF8047B704780B483B00B
S1131B4000AF78607B681B6918460C37BD465DF8AA
S1131B50047B704780B483B000AF786039607B68E1
S1131B603A689A610C37BD465DF8047B704700BF44
S1131B7080B483B000AF78607B681B6918460C376B
S1131B80BD465DF8047B704780B582B000AF034664
S1131B90FB71FFF775FFFB79054AD25C0132D1B2C4
S1131BA0034AD154FFF782FF0837BD4680BD00BF0A
S1131BB09C00002080B500AF104B1B78002B00D098
S1131BC01AE00E4B5B78002B02D0FFF78DFF12E07A
S1131BD00A4B9B78002B03D00120FFF709FC0AE095
S1131BE0064BDB78002B03D00120FFF74FFC02E00B
S1131BF00120FFF74BFC00BF80BD00BF9C0000200C
S1131C0080B500AF0A480121FEF7FAFE0948012118
S1131C10FEF7F6FE0420022104220023FFF7FAFC5B
S1131C200420032104220023FFF7F4FC80BD00BF3D
S1131C304081040000D2040080B582B000AF0346A6
S1131C40FB71FB79002B04D104200221FFF7A0FED5
S1131C5003E004200321FFF79BFE0837BD4680BD47
S1131C6080B582B000AF0346FB71FB79002B04D131
S1131C7004200221FFF760FE03E004200321FFF7A4
S1131C805BFE0837BD4680BD80B582B000AF034619
S1131C90FB71FB79002B04D104200221FFF7A4FE81
S1131CA003E004200321FFF79FFE0837BD4680BDF3
S1131CB080B58EB000AF01233B7100237B710023FC
S1131CC0BB710023FB7101233B7200237B72002351
S1131CD0BB720023FB7200233B7300237B7300233E
S1131CE0BB733B1D4A481946FFF75CFD0223BB62E8
S1131CF04FF400437B624FF6FF733B62BB6A7A6A20
S1131D0002FB03F3FB6100237B63FB693B63012359
S1131D10FB620AE07B6B01337B63FB6A5B00FB6263
S1131D20FA69FB6A92FBF3F33B633A6B3B6A9A42B0
S1131D30F0DC384A7B6B1B0293663748FEF7CCFE17
S1131D400346BB61B86900F0E1FA02460B4610464F
S1131D5019464FF00002314B00F03EFB02460B46A1
S1131D60104619464FF000024FF0804300F05EFC2D
S1131D7002460B461046194600F040FD03467B61BF
S1131D80B86900F0C3FA02460B46104619461EA372
S1131D90D3E9002300F020FB02460B461046194607
S1131DA04FF000024FF0804300F040FC02460B4627
S1131DB01046194600F022FD03463B617B69144836
S1131DC000211A46FFF7ACFC3B69114801211A4671
S1131DD0FFF7A6FC0E4B4FF6FF729A620C4A0C4BAF
S1131DE0DB6A43F00103D362094A094BDB6A43F01F
S1131DF00203D3621A20FFF787FD05480121FFF78C
S1131E00BBFC3837BD4680BDFCA9F1D24D62703FA2
S1131E100020084000800C4002001A00000004402A
S1131E2080B586B000AF0220062101220023FFF70F
S1131E30F1FB0320062104220023FFF7EBFB072319
S1131E407B6000233B7501233B7000237B700123DF
S1131E50FB7200233B7300233B7201237B7200233C
S1131E607B733D233B610723BB723B460B481946FA
S1131E70FEF70EFB094B4FF400725A6007480A2123
S1131E800622FEF7DFFA054B4FF6FF729A61022035
S1131E90FFF77AFE1837BD4680BD00BF0010004032
S1131EA080B582B000AFFFF7EBFD2348FFF73AFEA1
S1131EB003463B603B6820481946FFF725FE3B6814
S1131EC003F00103002B11D0032006210422012377
S1131ED0FFF7A0FB1948FEF799FA00237B6002E0A4
S1131EE07B6801337B607B68132BF9DD3B6803F06F
S1131EF00203002B1BD0114B9B6803F00203002B41
S1131F0003D00120FFF7ACFE02E00120FFF794FEAE
S1131F100220062100220023FFF77CFB0320062178
S1131F2000220023FFF776FB0448FEF753FAFFF77D
S1131F30BDFD0837BD4680BD0020084000100040AC
S1131F4080B582B000AFFFF79BFD0C48FFF7F6FDAC
S1131F5003467B600020FFF797FE084A074B9B6906
S1131F6043F001039361054A044B9B6943F0020368
S1131F709361FFF79BFD0837BD4680BD001000400C
S1131F8080B582B000AFFFF77BFD0748FFF7F0FD97
S1131F9003467B607B6804481946FFF7DBFDFFF7C7
S1131FA085FD0837BD4680BD0000014080B500AF07
S1131FB01E4BDB78002B1CD0052001210122FFF7EA
S1131FC081F81B480921FEF721FF1A480121FEF779
S1131FD017FD19480121FEF713FD18480121FEF7EA
S1131FE00FFD17480121FEF70BFD0320FFF7CCFD81
S1131FF01BE0002001210122FFF764F80C480221B4
S1132000FEF704FF0B480121FEF7FAFC0A48012100
S1132010FEF7F6FC09480121FEF7F2FC084801210D
S1132020FEF7EEFC0220FFF7AFFD80BD9C00002010
S113203002001A000043020060261400009204000B
S11320400052040080B500AFFFF7FAFCFFF7D8FD9B
S11320500220FFF799FDFFF7A9FFFFF7E1FEFFF765
S113206027FEFFF7A7FDFCE781F0004102E000BF77
S113207083F0004330B54FEA41044FEA430594EA44
S1132080050F08BF90EA020F1FBF54EA000C55EA7F
S1132090020C7FEA645C7FEA655C00F0E2804FEA50
S11320A05454D4EB5555B8BF6D420CDD2C4480EA32
S11320B0020281EA030382EA000083EA010180EA62
S11320C0020281EA0303362D88BF30BD11F0004FB0
S11320D04FEA01314FF4801C4CEA113102D04042E6
S11320E061EB410113F0004F4FEA03334CEA133321
S11320F002D0524263EB430394EA050F00F0A78039
S1132100A4F10104D5F1200E0DDB02FA0EFC22FA33
S113211005F2801841F1000103FA0EF2801843FA27
S113212005F359410EE0A5F120050EF1200E012A18
S113213003FA0EFC28BF4CF0020C43FA05F3C01856
S113214051EBE37101F0004507D54FF0000EDCF1CF
S1132150000C7EEB00006EEB0101B1F5801F1BD378
S1132160B1F5001F0CD349085FEA30004FEA3C0C7C
S113217004F101044FEA445212F5800F80F09A8072
S1132180BCF1004F08BF5FEA500C50F1000041EB76
S1132190045141EA050130BD5FEA4C0C404141EB7A
S11321A0010111F4801FA4F10104E9D191F0000FA1
S11321B004BF01460020B1FA81F308BF2033A3F124
S11321C00B03B3F120020CDA0C3208DD02F1140C1B
S11321D0C2F10C0201FA0CF021FA02F10CE002F156
S11321E01402D8BFC2F1200C01FA02F120FA0CFC4F
S11321F0DCBF41EA0C019040E41AA2BF01EB045198
S1132200294330BD6FEA04041F3C1CDA0C340EDC95
S113221004F11404C4F1200220FA04F001FA02F3D8
S113222040EA030021FA04F345EA030130BDC4F196
S11322300C04C4F1200220FA02F001FA04F340EA8B
S11322400300294630BD21FA04F0294630BD94F03C
S1132250000F83F4801306BF81F480110134013D23
S11322604EE77FEA645C18BF7FEA655C29D094EA94
S1132270050F08BF90EA020F05D054EA000C04BF12
S11322801946104630BD91EA030F1EBF00210020FD
S113229030BD5FEA545C05D14000494128BF41F09C
S11322A0004130BD14F580043CBF01F5801130BD00
S11322B001F0004545F0FE4141F470014FF000008B
S11322C030BD7FEA645C1ABF194610467FEA655C3C
S11322D01CBF0B46024650EA013406BF52EA0335DE
S11322E091EA030F41F4002130BD00BF90F0000FCC
S11322F004BF0021704730B54FF4806404F1320408
S11323004FF000054FF0000150E700BF90F0000FC0
S113231004BF0021704730B54FF4806404F13204E7
S113232010F0004548BF40424FF000013EE700BFB7
S113233042004FEAE2014FEA31014FEA02701FBF47
S113234012F07F4393F07F4F81F06051704792F019
S1132350000F14BF93F07F4F704730B54FF4607493
S113236001F0004521F0004120E700BF50EA0102DE
S113237008BF704730B54FF000050AE050EA01028B
S113238008BF704730B511F0004502D5404261EBFB
S113239041014FF4806404F132045FEA915C3FF43C
S11323A0DCAE4FF003025FEADC0C18BF03325FEAD5
S11323B0DC0C18BF033202EBDC02C2F1200300FA8A
S11323C003FC20FA02F001FA03FE40EA0E0021FAAF
S11323D002F11444C1E600BF70B54FF0FF0C4CF499
S11323E0E06C1CEA11541DBF1CEA135594EA0C0F4F
S11323F095EA0C0F00F0DEF82C4481EA030621EA8A
S11324004C5123EA4C5350EA013518BF52EA0335C4
S113241041F4801143F4801338D0A0FB02CE4FF076
S11324200005E1FB02E506F00042E0FB03E54FF0A6
S11324300006E1FB03569CF0000F18BF4EF0010E9E
S1132440A4F1FF04B6F5007F64F5407404D25FEA9A
S11324504E0E6D4146EB060642EAC62141EA55514D
S11324604FEAC52040EA5E504FEACE2EB4F1FD0C8F
S113247088BFBCF5E06F1ED8BEF1004F08BF5FEA0D
S1132480500E50F1000041EB045170BD06F00046BF
S113249046EA010140EA020081EA0301B4EB5C046C
S11324A0C2BFD4EB0C0541EA045170BD41F4801164
S11324B04FF0000E013C00F3AB8014F1360FDEBF89
S11324C0002001F0004170BDC4F10004203C35DA65
S11324D00C341BDC04F11404C4F1200500FA05F3E8
S11324E020FA04F001FA05F240EA020001F0004289
S11324F021F0004110EBD37021FA04F642EB0601FF
S11325005EEA430E08BF20EAD37070BDC4F10C0428
S1132510C4F1200500FA04F320FA05F001FA04F2EC
S113252040EA020001F0004110EBD37041F10001D8
S11325305EEA430E08BF20EAD37070BDC4F12005E3
S113254000FA05F24EEA020E20FA04F301FA05F24B
S113255043EA020321FA04F001F0004121FA04F2F3
S113256020EA020000EBD3705EEA430E08BF20EAC3
S1132570D37070BD94F0000F0FD101F000464000FD
S113258041EB010111F4801F08BF013CF7D041EA7F
S1132590060195F0000F18BF704703F00046520083
S11325A043EB030313F4801F08BF013DF7D043EA54
S11325B00603704794EA0C0F0CEA135518BF95EA0A
S11325C00C0F0CD050EA410618BF52EA4306D1D191
S11325D081EA030101F000414FF0000070BD50EAB0
S11325E0410606BF1046194652EA430619D094EA3A
S11325F00C0F02D150EA013613D195EA0C0F05D124
S113260052EA03361CBF104619460AD181EA030177
S113261001F0004141F0FE4141F470014FF000002F
S113262070BD41F0FE4141F4780170BD70B54FF0CA
S1132630FF0C4CF4E06C1CEA11541DBF1CEA13554A
S113264094EA0C0F95EA0C0F00F0A7F8A4EB05042C
S113265081EA030E52EA03354FEA013100F0888023
S11326604FEA03334FF0805545EA131343EA1263EC
S11326704FEA022245EA111545EA10654FEA0026A1
S11326800EF000419D4208BF964244F1FD0404F55A
S1132690407402D25B084FEA3202B61A65EB0305B6
S11326A05B084FEA32024FF480104FF4002CB6EB73
S11326B0020E75EB030E22BFB61A754640EA0C00F3
S11326C05B084FEA3202B6EB020E75EB030E22BF33
S11326D0B61A754640EA5C005B084FEA3202B6EB74
S11326E0020E75EB030E22BFB61A754640EA9C0033
S11326F05B084FEA3202B6EB020E75EB030E22BF03
S1132700B61A754640EADC0055EA060E18D04FEAC0
S1132710051545EA16754FEA06164FEAC30343EA60
S113272052734FEAC2025FEA1C1CC0D111F4801F2D
S11327300BD141EA00014FF000004FF0004CB6E726
S113274011F4801F04BF01430020B4F1FD0C88BFC5
S1132750BCF5E06F3FF6AFAEB5EB030C04BFB6EBD0
S1132760020C5FEA500C50F1000041EB045170BDC3
S11327700EF0004E4EEA113114EB5C04C2BFD4EBF0
S11327800C0541EA045170BD41F480114FF0000E74
S1132790013C90E645EA060E8DE60CEA135594EAF0
S11327A00C0F08BF95EA0C0F3FF43BAF94EA0C0FF3
S11327B00AD150EA01347FF434AF95EA0C0F7FF468
S11327C025AF104619462CE795EA0C0F06D152EABC
S11327D003353FF4FDAE1046194622E750EA4106A0
S11327E018BF52EA43067FF4C5AE50EA41047FF4B1
S11327F00DAF52EA43057FF4EBAE12E74FEA410214
S113280012F5001215D211D56FF47873B3EB62523E
S113281012D94FEAC12343F0004343EA505311F065
S1132820004F23FA02F018BF404270474FF00000F7
S1132830704750EA013005D111F0004008BF6FF035
S1132840004070474FF00000704700BF08B5074BC9
S1132850044613B10021AFF30080054B1868836A66
S113286003B19847204600F033F800BF0000000091
S1132870F02800000E4B70B51E460E4C0025E41ADD
S1132880A410A54204D056F8253098470135F8E73E
S113289000F020F8084B094C1E46E41AA410002549
S11328A0A54204D056F8253098470135F8E770BDA5
S11328B06800002068000020680000206C000020F0
S11328C003460244934202D003F8011BFAE770471F
S11328D0FEE700BFF8B500BFF8BC08BC9E467047D1
S11328E0F8B500BFF8BC08BC9E4670474300000022
S10B28F00800002000000000B4
S10B28F844D8FF7F0100000039
S1132900006CDC02008000000000000000000000F9
S113291000000000000000000000000000000000B3
S11329200000000000000000EC280000000000008F
S11329300000000000000000000000000000000093
S11329400000000000000000000000000000000083
S11329500000000000000000000000000000000073
S1132960000000000000000005010000E10000007C
S1072970000000005F
S90301B14A
